{
  "contractName": "DAO",
  "abi": [
    {
      "inputs": [
        {
          "internalType": "uint256",
          "name": "_contributionTimeEnd",
          "type": "uint256"
        },
        {
          "internalType": "uint256",
          "name": "_voteTime",
          "type": "uint256"
        },
        {
          "internalType": "uint256",
          "name": "_quorum",
          "type": "uint256"
        }
      ],
      "stateMutability": "nonpayable",
      "type": "constructor"
    },
    {
      "inputs": [],
      "name": "availableFunds",
      "outputs": [
        {
          "internalType": "uint256",
          "name": "",
          "type": "uint256"
        }
      ],
      "stateMutability": "view",
      "type": "function",
      "constant": true
    },
    {
      "inputs": [],
      "name": "contributionTimeEnd",
      "outputs": [
        {
          "internalType": "uint256",
          "name": "",
          "type": "uint256"
        }
      ],
      "stateMutability": "view",
      "type": "function",
      "constant": true
    },
    {
      "inputs": [
        {
          "internalType": "uint256",
          "name": "",
          "type": "uint256"
        }
      ],
      "name": "investorsList",
      "outputs": [
        {
          "internalType": "address",
          "name": "",
          "type": "address"
        }
      ],
      "stateMutability": "view",
      "type": "function",
      "constant": true
    },
    {
      "inputs": [
        {
          "internalType": "address",
          "name": "",
          "type": "address"
        },
        {
          "internalType": "uint256",
          "name": "",
          "type": "uint256"
        }
      ],
      "name": "isVoted",
      "outputs": [
        {
          "internalType": "bool",
          "name": "",
          "type": "bool"
        }
      ],
      "stateMutability": "view",
      "type": "function",
      "constant": true
    },
    {
      "inputs": [],
      "name": "manager",
      "outputs": [
        {
          "internalType": "address",
          "name": "",
          "type": "address"
        }
      ],
      "stateMutability": "view",
      "type": "function",
      "constant": true
    },
    {
      "inputs": [],
      "name": "nextProposalId",
      "outputs": [
        {
          "internalType": "uint256",
          "name": "",
          "type": "uint256"
        }
      ],
      "stateMutability": "view",
      "type": "function",
      "constant": true
    },
    {
      "inputs": [
        {
          "internalType": "address",
          "name": "",
          "type": "address"
        }
      ],
      "name": "numOfshares",
      "outputs": [
        {
          "internalType": "uint256",
          "name": "",
          "type": "uint256"
        }
      ],
      "stateMutability": "view",
      "type": "function",
      "constant": true
    },
    {
      "inputs": [
        {
          "internalType": "uint256",
          "name": "",
          "type": "uint256"
        }
      ],
      "name": "proposals",
      "outputs": [
        {
          "internalType": "uint256",
          "name": "id",
          "type": "uint256"
        },
        {
          "internalType": "string",
          "name": "description",
          "type": "string"
        },
        {
          "internalType": "uint256",
          "name": "amount",
          "type": "uint256"
        },
        {
          "internalType": "address payable",
          "name": "receipient",
          "type": "address"
        },
        {
          "internalType": "uint256",
          "name": "votes",
          "type": "uint256"
        },
        {
          "internalType": "uint256",
          "name": "end",
          "type": "uint256"
        },
        {
          "internalType": "bool",
          "name": "isExecuted",
          "type": "bool"
        }
      ],
      "stateMutability": "view",
      "type": "function",
      "constant": true
    },
    {
      "inputs": [],
      "name": "quorum",
      "outputs": [
        {
          "internalType": "uint256",
          "name": "",
          "type": "uint256"
        }
      ],
      "stateMutability": "view",
      "type": "function",
      "constant": true
    },
    {
      "inputs": [],
      "name": "totalShares",
      "outputs": [
        {
          "internalType": "uint256",
          "name": "",
          "type": "uint256"
        }
      ],
      "stateMutability": "view",
      "type": "function",
      "constant": true
    },
    {
      "inputs": [],
      "name": "voteTime",
      "outputs": [
        {
          "internalType": "uint256",
          "name": "",
          "type": "uint256"
        }
      ],
      "stateMutability": "view",
      "type": "function",
      "constant": true
    },
    {
      "inputs": [],
      "name": "contribution",
      "outputs": [],
      "stateMutability": "payable",
      "type": "function",
      "payable": true
    },
    {
      "inputs": [
        {
          "internalType": "uint256",
          "name": "amount",
          "type": "uint256"
        }
      ],
      "name": "reedemShare",
      "outputs": [],
      "stateMutability": "nonpayable",
      "type": "function"
    },
    {
      "inputs": [
        {
          "internalType": "uint256",
          "name": "amount",
          "type": "uint256"
        },
        {
          "internalType": "address",
          "name": "to",
          "type": "address"
        }
      ],
      "name": "transferShare",
      "outputs": [],
      "stateMutability": "nonpayable",
      "type": "function"
    },
    {
      "inputs": [
        {
          "internalType": "string",
          "name": "description",
          "type": "string"
        },
        {
          "internalType": "uint256",
          "name": "amount",
          "type": "uint256"
        },
        {
          "internalType": "address payable",
          "name": "receipient",
          "type": "address"
        }
      ],
      "name": "createProposal",
      "outputs": [],
      "stateMutability": "nonpayable",
      "type": "function"
    },
    {
      "inputs": [
        {
          "internalType": "uint256",
          "name": "proposalId",
          "type": "uint256"
        }
      ],
      "name": "voteProposal",
      "outputs": [],
      "stateMutability": "nonpayable",
      "type": "function"
    },
    {
      "inputs": [
        {
          "internalType": "uint256",
          "name": "proposalId",
          "type": "uint256"
        }
      ],
      "name": "executeProposal",
      "outputs": [],
      "stateMutability": "nonpayable",
      "type": "function"
    },
    {
      "inputs": [],
      "name": "ProposalList",
      "outputs": [
        {
          "components": [
            {
              "internalType": "uint256",
              "name": "id",
              "type": "uint256"
            },
            {
              "internalType": "string",
              "name": "description",
              "type": "string"
            },
            {
              "internalType": "uint256",
              "name": "amount",
              "type": "uint256"
            },
            {
              "internalType": "address payable",
              "name": "receipient",
              "type": "address"
            },
            {
              "internalType": "uint256",
              "name": "votes",
              "type": "uint256"
            },
            {
              "internalType": "uint256",
              "name": "end",
              "type": "uint256"
            },
            {
              "internalType": "bool",
              "name": "isExecuted",
              "type": "bool"
            }
          ],
          "internalType": "struct DAO.Proposal[]",
          "name": "",
          "type": "tuple[]"
        }
      ],
      "stateMutability": "view",
      "type": "function",
      "constant": true
    },
    {
      "inputs": [],
      "name": "InvestorList",
      "outputs": [
        {
          "internalType": "address[]",
          "name": "",
          "type": "address[]"
        }
      ],
      "stateMutability": "view",
      "type": "function",
      "constant": true
    }
  ],
  "bytecode": "0x60806040523480156200001157600080fd5b5060405162002b2638038062002b26833981810160405281019062000037919062000136565b600081118015620000485750606481105b6200008a576040517f08c379a00000000000000000000000000000000000000000000000000000000081526004016200008190620001f3565b60405180910390fd5b824262000098919062000244565b6007819055508160098190555080600a8190555033600b60006101000a81548173ffffffffffffffffffffffffffffffffffffffff021916908373ffffffffffffffffffffffffffffffffffffffff1602179055505050506200027f565b600080fd5b6000819050919050565b6200011081620000fb565b81146200011c57600080fd5b50565b600081519050620001308162000105565b92915050565b600080600060608486031215620001525762000151620000f6565b5b600062000162868287016200011f565b935050602062000175868287016200011f565b925050604062000188868287016200011f565b9150509250925092565b600082825260208201905092915050565b7f4e6f742076616c69642076616c75657300000000000000000000000000000000600082015250565b6000620001db60108362000192565b9150620001e882620001a3565b602082019050919050565b600060208201905081810360008301526200020e81620001cc565b9050919050565b7f4e487b7100000000000000000000000000000000000000000000000000000000600052601160045260246000fd5b60006200025182620000fb565b91506200025e83620000fb565b925082820190508082111562000279576200027862000215565b5b92915050565b612897806200028f6000396000f3fe6080604052600436106101145760003560e01c806350520b1f116100a0578063afc8275b11610064578063afc8275b14610386578063bcf93dd6146103b1578063c1188cff146103dc578063df18b7f414610405578063e65da4291461043057610114565b806350520b1f146102c25780636ac1e01f146102cc5780636dfc1099146102f5578063807896d5146103205780638ee36f051461034957610114565b80632ab09d14116100e75780632ab09d14146101d95780632ccc8727146102045780633a98ef391461024157806346fcff4c1461026c578063481c6a751461029757610114565b8063013cf08b14610119578063039383e61461015c5780630d61b519146101855780631703a018146101ae575b600080fd5b34801561012557600080fd5b50610140600480360381019061013b9190611881565b61046d565b60405161015397969594939291906119a9565b60405180910390f35b34801561016857600080fd5b50610183600480360381019061017e9190611a5d565b610564565b005b34801561019157600080fd5b506101ac60048036038101906101a79190611881565b6108c6565b005b3480156101ba57600080fd5b506101c3610a3f565b6040516101d09190611a9d565b60405180910390f35b3480156101e557600080fd5b506101ee610a45565b6040516101fb9190611a9d565b60405180910390f35b34801561021057600080fd5b5061022b60048036038101906102269190611881565b610a4b565b6040516102389190611ac7565b60405180910390f35b34801561024d57600080fd5b50610256610a8a565b6040516102639190611a9d565b60405180910390f35b34801561027857600080fd5b50610281610a90565b60405161028e9190611a9d565b60405180910390f35b3480156102a357600080fd5b506102ac610a96565b6040516102b99190611ac7565b60405180910390f35b6102ca610abc565b005b3480156102d857600080fd5b506102f360048036038101906102ee9190611b73565b610d66565b005b34801561030157600080fd5b5061030a610f71565b6040516103179190611dbc565b60405180910390f35b34801561032c57600080fd5b5061034760048036038101906103429190611881565b61115c565b005b34801561035557600080fd5b50610370600480360381019061036b9190611dde565b61140f565b60405161037d9190611e1e565b60405180910390f35b34801561039257600080fd5b5061039b61143e565b6040516103a89190611a9d565b60405180910390f35b3480156103bd57600080fd5b506103c6611444565b6040516103d39190611a9d565b60405180910390f35b3480156103e857600080fd5b5061040360048036038101906103fe9190611881565b61144a565b005b34801561041157600080fd5b5061041a6116fb565b6040516104279190611ef7565b60405180910390f35b34801561043c57600080fd5b5061045760048036038101906104529190611f19565b611789565b6040516104649190611a9d565b60405180910390f35b600460205280600052604060002060009150905080600001549080600101805461049690611f75565b80601f01602080910402602001604051908101604052809291908181526020018280546104c290611f75565b801561050f5780601f106104e45761010080835404028352916020019161050f565b820191906000526020600020905b8154815290600101906020018083116104f257829003601f168201915b5050505050908060020154908060030160009054906101000a900473ffffffffffffffffffffffffffffffffffffffff16908060040154908060050154908060060160009054906101000a900460ff16905087565b600115156000803373ffffffffffffffffffffffffffffffffffffffff1673ffffffffffffffffffffffffffffffffffffffff16815260200190815260200160002060009054906101000a900460ff161515146105f6576040517f08c379a00000000000000000000000000000000000000000000000000000000081526004016105ed90611ff2565b60405180910390fd5b81600654101561063b576040517f08c379a00000000000000000000000000000000000000000000000000000000081526004016106329061205e565b60405180910390fd5b81600160003373ffffffffffffffffffffffffffffffffffffffff1673ffffffffffffffffffffffffffffffffffffffff1681526020019081526020016000205410156106bd576040517f08c379a00000000000000000000000000000000000000000000000000000000081526004016106b4906120ca565b60405180910390fd5b81600160003373ffffffffffffffffffffffffffffffffffffffff1673ffffffffffffffffffffffffffffffffffffffff168152602001908152602001600020600082825461070c9190612119565b925050819055506000600160003373ffffffffffffffffffffffffffffffffffffffff1673ffffffffffffffffffffffffffffffffffffffff16815260200190815260200160002054036107b25760008060003373ffffffffffffffffffffffffffffffffffffffff1673ffffffffffffffffffffffffffffffffffffffff16815260200190815260200160002060006101000a81548160ff0219169083151502179055505b81600160008373ffffffffffffffffffffffffffffffffffffffff1673ffffffffffffffffffffffffffffffffffffffff1681526020019081526020016000206000828254610801919061214d565b9250508190555060016000808373ffffffffffffffffffffffffffffffffffffffff1673ffffffffffffffffffffffffffffffffffffffff16815260200190815260200160002060006101000a81548160ff0219169083151502179055506003819080600181540180825580915050600190039060005260206000200160009091909190916101000a81548173ffffffffffffffffffffffffffffffffffffffff021916908373ffffffffffffffffffffffffffffffffffffffff1602179055505050565b3373ffffffffffffffffffffffffffffffffffffffff16600b60009054906101000a900473ffffffffffffffffffffffffffffffffffffffff1673ffffffffffffffffffffffffffffffffffffffff1614610956576040517f08c379a000000000000000000000000000000000000000000000000000000000815260040161094d906121cd565b60405180910390fd5b6000600460008381526020019081526020016000209050600a546005546064836004015461098491906121ed565b61098e919061225e565b10156109cf576040517f08c379a00000000000000000000000000000000000000000000000000000000081526004016109c6906122db565b60405180910390fd5b60018160060160006101000a81548160ff021916908315150217905550806002015460066000828254610a029190612119565b92505081905550610a3b81600201548260030160009054906101000a900473ffffffffffffffffffffffffffffffffffffffff166117a1565b5050565b600a5481565b60085481565b60038181548110610a5b57600080fd5b906000526020600020016000915054906101000a900473ffffffffffffffffffffffffffffffffffffffff1681565b60055481565b60065481565b600b60009054906101000a900473ffffffffffffffffffffffffffffffffffffffff1681565b426007541015610b01576040517f08c379a0000000000000000000000000000000000000000000000000000000008152600401610af890612347565b60405180910390fd5b60003411610b44576040517f08c379a0000000000000000000000000000000000000000000000000000000008152600401610b3b906123b3565b60405180910390fd5b60016000803373ffffffffffffffffffffffffffffffffffffffff1673ffffffffffffffffffffffffffffffffffffffff16815260200190815260200160002060006101000a81548160ff02191690831515021790555034600160003373ffffffffffffffffffffffffffffffffffffffff1673ffffffffffffffffffffffffffffffffffffffff16815260200190815260200160002054610be6919061214d565b600160003373ffffffffffffffffffffffffffffffffffffffff1673ffffffffffffffffffffffffffffffffffffffff168152602001908152602001600020819055503460056000828254610c3b919061214d565b925050819055503460066000828254610c54919061214d565b925050819055506000805b600380549050811015610cf9573373ffffffffffffffffffffffffffffffffffffffff1660038281548110610c9757610c966123d3565b5b9060005260206000200160009054906101000a900473ffffffffffffffffffffffffffffffffffffffff1673ffffffffffffffffffffffffffffffffffffffff1603610ce65760019150610cf9565b8080610cf190612402565b915050610c5f565b5080610d63576003339080600181540180825580915050600190039060005260206000200160009091909190916101000a81548173ffffffffffffffffffffffffffffffffffffffff021916908373ffffffffffffffffffffffffffffffffffffffff1602179055505b50565b3373ffffffffffffffffffffffffffffffffffffffff16600b60009054906101000a900473ffffffffffffffffffffffffffffffffffffffff1673ffffffffffffffffffffffffffffffffffffffff1614610df6576040517f08c379a0000000000000000000000000000000000000000000000000000000008152600401610ded906121cd565b60405180910390fd5b6040518060e00160405280600854815260200185858080601f016020809104026020016040519081016040528093929190818152602001838380828437600081840152601f19601f8201169050808301925050505050505081526020018381526020018273ffffffffffffffffffffffffffffffffffffffff1681526020016000815260200160095442610e8a919061214d565b815260200160001515815250600460006008548152602001908152602001600020600082015181600001556020820151816001019081610eca9190612625565b506040820151816002015560608201518160030160006101000a81548173ffffffffffffffffffffffffffffffffffffffff021916908373ffffffffffffffffffffffffffffffffffffffff1602179055506080820151816004015560a0820151816005015560c08201518160060160006101000a81548160ff02191690831515021790555090505060086000815480929190610f6690612402565b919050555050505050565b6060600060085467ffffffffffffffff811115610f9157610f9061244a565b5b604051908082528060200260200182016040528015610fca57816020015b610fb76117ec565b815260200190600190039081610faf5790505b50905060005b60085481101561115457600460008281526020019081526020016000206040518060e00160405290816000820154815260200160018201805461101290611f75565b80601f016020809104026020016040519081016040528092919081815260200182805461103e90611f75565b801561108b5780601f106110605761010080835404028352916020019161108b565b820191906000526020600020905b81548152906001019060200180831161106e57829003601f168201915b50505050508152602001600282015481526020016003820160009054906101000a900473ffffffffffffffffffffffffffffffffffffffff1673ffffffffffffffffffffffffffffffffffffffff1673ffffffffffffffffffffffffffffffffffffffff16815260200160048201548152602001600582015481526020016006820160009054906101000a900460ff161515151581525050828281518110611136576111356123d3565b5b6020026020010181905250808061114c90612402565b915050610fd0565b508091505090565b600115156000803373ffffffffffffffffffffffffffffffffffffffff1673ffffffffffffffffffffffffffffffffffffffff16815260200190815260200160002060009054906101000a900460ff161515146111ee576040517f08c379a00000000000000000000000000000000000000000000000000000000081526004016111e590611ff2565b60405180910390fd5b600060046000838152602001908152602001600020905060001515600260003373ffffffffffffffffffffffffffffffffffffffff1673ffffffffffffffffffffffffffffffffffffffff168152602001908152602001600020600084815260200190815260200160002060009054906101000a900460ff161515146112a9576040517f08c379a00000000000000000000000000000000000000000000000000000000081526004016112a090612769565b60405180910390fd5b42816005015410156112f0576040517f08c379a00000000000000000000000000000000000000000000000000000000081526004016112e7906127d5565b60405180910390fd5b600015158160060160009054906101000a900460ff16151514611348576040517f08c379a000000000000000000000000000000000000000000000000000000000815260040161133f90612841565b60405180910390fd5b6001600260003373ffffffffffffffffffffffffffffffffffffffff1673ffffffffffffffffffffffffffffffffffffffff168152602001908152602001600020600084815260200190815260200160002060006101000a81548160ff021916908315150217905550600160003373ffffffffffffffffffffffffffffffffffffffff1673ffffffffffffffffffffffffffffffffffffffff16815260200190815260200160002054816004016000828254611404919061214d565b925050819055505050565b60026020528160005260406000206020528060005260406000206000915091509054906101000a900460ff1681565b60075481565b60095481565b600115156000803373ffffffffffffffffffffffffffffffffffffffff1673ffffffffffffffffffffffffffffffffffffffff16815260200190815260200160002060009054906101000a900460ff161515146114dc576040517f08c379a00000000000000000000000000000000000000000000000000000000081526004016114d390611ff2565b60405180910390fd5b80600160003373ffffffffffffffffffffffffffffffffffffffff1673ffffffffffffffffffffffffffffffffffffffff16815260200190815260200160002054101561155e576040517f08c379a0000000000000000000000000000000000000000000000000000000008152600401611555906120ca565b60405180910390fd5b8060065410156115a3576040517f08c379a000000000000000000000000000000000000000000000000000000000815260040161159a9061205e565b60405180910390fd5b80600160003373ffffffffffffffffffffffffffffffffffffffff1673ffffffffffffffffffffffffffffffffffffffff16815260200190815260200160002060008282546115f29190612119565b925050819055506000600160003373ffffffffffffffffffffffffffffffffffffffff1673ffffffffffffffffffffffffffffffffffffffff16815260200190815260200160002054036116985760008060003373ffffffffffffffffffffffffffffffffffffffff1673ffffffffffffffffffffffffffffffffffffffff16815260200190815260200160002060006101000a81548160ff0219169083151502179055505b80600660008282546116aa9190612119565b925050819055503373ffffffffffffffffffffffffffffffffffffffff166108fc829081150290604051600060405180830381858888f193505050501580156116f7573d6000803e3d6000fd5b5050565b6060600380548060200260200160405190810160405280929190818152602001828054801561177f57602002820191906000526020600020905b8160009054906101000a900473ffffffffffffffffffffffffffffffffffffffff1673ffffffffffffffffffffffffffffffffffffffff1681526020019060010190808311611735575b5050505050905090565b60016020528060005260406000206000915090505481565b8073ffffffffffffffffffffffffffffffffffffffff166108fc839081150290604051600060405180830381858888f193505050501580156117e7573d6000803e3d6000fd5b505050565b6040518060e00160405280600081526020016060815260200160008152602001600073ffffffffffffffffffffffffffffffffffffffff16815260200160008152602001600081526020016000151581525090565b600080fd5b600080fd5b6000819050919050565b61185e8161184b565b811461186957600080fd5b50565b60008135905061187b81611855565b92915050565b60006020828403121561189757611896611841565b5b60006118a58482850161186c565b91505092915050565b6118b78161184b565b82525050565b600081519050919050565b600082825260208201905092915050565b60005b838110156118f75780820151818401526020810190506118dc565b60008484015250505050565b6000601f19601f8301169050919050565b600061191f826118bd565b61192981856118c8565b93506119398185602086016118d9565b61194281611903565b840191505092915050565b600073ffffffffffffffffffffffffffffffffffffffff82169050919050565b60006119788261194d565b9050919050565b6119888161196d565b82525050565b60008115159050919050565b6119a38161198e565b82525050565b600060e0820190506119be600083018a6118ae565b81810360208301526119d08189611914565b90506119df60408301886118ae565b6119ec606083018761197f565b6119f960808301866118ae565b611a0660a08301856118ae565b611a1360c083018461199a565b98975050505050505050565b6000611a2a8261194d565b9050919050565b611a3a81611a1f565b8114611a4557600080fd5b50565b600081359050611a5781611a31565b92915050565b60008060408385031215611a7457611a73611841565b5b6000611a828582860161186c565b9250506020611a9385828601611a48565b9150509250929050565b6000602082019050611ab260008301846118ae565b92915050565b611ac181611a1f565b82525050565b6000602082019050611adc6000830184611ab8565b92915050565b600080fd5b600080fd5b600080fd5b60008083601f840112611b0757611b06611ae2565b5b8235905067ffffffffffffffff811115611b2457611b23611ae7565b5b602083019150836001820283011115611b4057611b3f611aec565b5b9250929050565b611b508161196d565b8114611b5b57600080fd5b50565b600081359050611b6d81611b47565b92915050565b60008060008060608587031215611b8d57611b8c611841565b5b600085013567ffffffffffffffff811115611bab57611baa611846565b5b611bb787828801611af1565b94509450506020611bca8782880161186c565b9250506040611bdb87828801611b5e565b91505092959194509250565b600081519050919050565b600082825260208201905092915050565b6000819050602082019050919050565b611c1c8161184b565b82525050565b600082825260208201905092915050565b6000611c3e826118bd565b611c488185611c22565b9350611c588185602086016118d9565b611c6181611903565b840191505092915050565b611c758161196d565b82525050565b611c848161198e565b82525050565b600060e083016000830151611ca26000860182611c13565b5060208301518482036020860152611cba8282611c33565b9150506040830151611ccf6040860182611c13565b506060830151611ce26060860182611c6c565b506080830151611cf56080860182611c13565b5060a0830151611d0860a0860182611c13565b5060c0830151611d1b60c0860182611c7b565b508091505092915050565b6000611d328383611c8a565b905092915050565b6000602082019050919050565b6000611d5282611be7565b611d5c8185611bf2565b935083602082028501611d6e85611c03565b8060005b85811015611daa5784840389528151611d8b8582611d26565b9450611d9683611d3a565b925060208a01995050600181019050611d72565b50829750879550505050505092915050565b60006020820190508181036000830152611dd68184611d47565b905092915050565b60008060408385031215611df557611df4611841565b5b6000611e0385828601611a48565b9250506020611e148582860161186c565b9150509250929050565b6000602082019050611e33600083018461199a565b92915050565b600081519050919050565b600082825260208201905092915050565b6000819050602082019050919050565b611e6e81611a1f565b82525050565b6000611e808383611e65565b60208301905092915050565b6000602082019050919050565b6000611ea482611e39565b611eae8185611e44565b9350611eb983611e55565b8060005b83811015611eea578151611ed18882611e74565b9750611edc83611e8c565b925050600181019050611ebd565b5085935050505092915050565b60006020820190508181036000830152611f118184611e99565b905092915050565b600060208284031215611f2f57611f2e611841565b5b6000611f3d84828501611a48565b91505092915050565b7f4e487b7100000000000000000000000000000000000000000000000000000000600052602260045260246000fd5b60006002820490506001821680611f8d57607f821691505b602082108103611fa057611f9f611f46565b5b50919050565b7f596f7520617265206e6f7420616e20696e766573746f72000000000000000000600082015250565b6000611fdc6017836118c8565b9150611fe782611fa6565b602082019050919050565b6000602082019050818103600083015261200b81611fcf565b9050919050565b7f4e6f7420656e6f7567682066756e647300000000000000000000000000000000600082015250565b60006120486010836118c8565b915061205382612012565b602082019050919050565b600060208201905081810360008301526120778161203b565b9050919050565b7f596f7520646f6e2774206861766520656e6f7567682073686172657300000000600082015250565b60006120b4601c836118c8565b91506120bf8261207e565b602082019050919050565b600060208201905081810360008301526120e3816120a7565b9050919050565b7f4e487b7100000000000000000000000000000000000000000000000000000000600052601160045260246000fd5b60006121248261184b565b915061212f8361184b565b9250828203905081811115612147576121466120ea565b5b92915050565b60006121588261184b565b91506121638361184b565b925082820190508082111561217b5761217a6120ea565b5b92915050565b7f596f7520617265206e6f742061206d616e616765720000000000000000000000600082015250565b60006121b76015836118c8565b91506121c282612181565b602082019050919050565b600060208201905081810360008301526121e6816121aa565b9050919050565b60006121f88261184b565b91506122038361184b565b92508282026122118161184b565b91508282048414831517612228576122276120ea565b5b5092915050565b7f4e487b7100000000000000000000000000000000000000000000000000000000600052601260045260246000fd5b60006122698261184b565b91506122748361184b565b9250826122845761228361222f565b5b828204905092915050565b7f4d616a6f7269747920646f6573206e6f7420737570706f727400000000000000600082015250565b60006122c56019836118c8565b91506122d08261228f565b602082019050919050565b600060208201905081810360008301526122f4816122b8565b9050919050565b7f436f6e747269627574696f6e2054696d6520456e646564000000000000000000600082015250565b60006123316017836118c8565b915061233c826122fb565b602082019050919050565b6000602082019050818103600083015261236081612324565b9050919050565b7f53656e64206d6f7265207468616e203020657468657200000000000000000000600082015250565b600061239d6016836118c8565b91506123a882612367565b602082019050919050565b600060208201905081810360008301526123cc81612390565b9050919050565b7f4e487b7100000000000000000000000000000000000000000000000000000000600052603260045260246000fd5b600061240d8261184b565b91507fffffffffffffffffffffffffffffffffffffffffffffffffffffffffffffffff820361243f5761243e6120ea565b5b600182019050919050565b7f4e487b7100000000000000000000000000000000000000000000000000000000600052604160045260246000fd5b60008190508160005260206000209050919050565b60006020601f8301049050919050565b600082821b905092915050565b6000600883026124db7fffffffffffffffffffffffffffffffffffffffffffffffffffffffffffffffff8261249e565b6124e5868361249e565b95508019841693508086168417925050509392505050565b6000819050919050565b600061252261251d6125188461184b565b6124fd565b61184b565b9050919050565b6000819050919050565b61253c83612507565b61255061254882612529565b8484546124ab565b825550505050565b600090565b612565612558565b612570818484612533565b505050565b5b818110156125945761258960008261255d565b600181019050612576565b5050565b601f8211156125d9576125aa81612479565b6125b38461248e565b810160208510156125c2578190505b6125d66125ce8561248e565b830182612575565b50505b505050565b600082821c905092915050565b60006125fc600019846008026125de565b1980831691505092915050565b600061261583836125eb565b9150826002028217905092915050565b61262e826118bd565b67ffffffffffffffff8111156126475761264661244a565b5b6126518254611f75565b61265c828285612598565b600060209050601f83116001811461268f576000841561267d578287015190505b6126878582612609565b8655506126ef565b601f19841661269d86612479565b60005b828110156126c5578489015182556001820191506020850194506020810190506126a0565b868310156126e257848901516126de601f8916826125eb565b8355505b6001600288020188555050505b505050505050565b7f596f75206861766520616c726561647920766f74656420666f7220746869732060008201527f70726f706f73616c000000000000000000000000000000000000000000000000602082015250565b60006127536028836118c8565b915061275e826126f7565b604082019050919050565b6000602082019050818103600083015261278281612746565b9050919050565b7f566f74696e672054696d6520456e646564000000000000000000000000000000600082015250565b60006127bf6011836118c8565b91506127ca82612789565b602082019050919050565b600060208201905081810360008301526127ee816127b2565b9050919050565b7f497420697320616c726561647920657865637574656400000000000000000000600082015250565b600061282b6016836118c8565b9150612836826127f5565b602082019050919050565b6000602082019050818103600083015261285a8161281e565b905091905056fea26469706673582212202cd7986e9546ae8bf1bb27f29d42baa79f4e8a93e107a31901ec49919a3f14ad64736f6c63430008110033",
  "immutableReferences": {},
  "source": "// SPDX-License-Identifier: GPL-3.0\r\n\r\npragma solidity >=0.7.0 <0.9.0;\r\n\r\ncontract DAO {\r\nstruct Proposal{\r\nuint id;\r\nstring description;\r\nuint amount;\r\naddress payable receipient;\r\nuint votes;\r\nuint end;\r\nbool isExecuted;\r\n}\r\n\r\nmapping(address=>bool) private isInvestor;\r\nmapping(address=>uint) public numOfshares;\r\nmapping(address=>mapping(uint=>bool)) public isVoted;\r\naddress[] public investorsList;\r\nmapping(uint=>Proposal) public proposals;\r\nuint public totalShares;\r\nuint public availableFunds;\r\nuint public contributionTimeEnd;\r\nuint public nextProposalId;\r\nuint public voteTime;\r\nuint public quorum;\r\naddress public manager;\r\n\r\n//value passed using truffle migration file\r\nconstructor(uint _contributionTimeEnd,uint _voteTime,uint _quorum){\r\nrequire(_quorum>0 && _quorum<100,\"Not valid values\");\r\ncontributionTimeEnd=block.timestamp+_contributionTimeEnd; //16342343342 + 2*3600\r\nvoteTime=_voteTime;\r\nquorum=_quorum;\r\nmanager=msg.sender;\r\n}\r\n\r\nmodifier onlyInvestor(){\r\nrequire(isInvestor[msg.sender]==true,\"You are not an investor\");\r\n_;\r\n}\r\nmodifier onlyManager(){\r\nrequire(manager==msg.sender,\"You are not a manager\");\r\n_;\r\n}\r\n\r\n\r\n\r\nfunction contribution() public payable{\r\nrequire(contributionTimeEnd>=block.timestamp,\"Contribution Time Ended\");//5 PM , //16342343342 + 2*3600 > 16342340000\r\nrequire(msg.value>0,\"Send more than 0 ether\");\r\nisInvestor[msg.sender]=true;\r\nnumOfshares[msg.sender]=numOfshares[msg.sender]+msg.value;\r\ntotalShares+=msg.value; //totaltShares=totalShares+msg.value\r\navailableFunds+=msg.value;\r\n\r\nbool isinves=false;\r\nfor (uint i = 0; i < investorsList.length; i++) {\r\n        if (investorsList[i] == msg.sender) {\r\n          isinves=true;\r\n            break;\r\n        }\r\n    }\r\n    if (!isinves) {\r\n        investorsList.push(msg.sender);\r\n    }\r\n\r\n\r\n\r\n}\r\n\r\nfunction reedemShare(uint amount) public onlyInvestor(){\r\nrequire(numOfshares[msg.sender]>=amount,\"You don't have enough shares\");\r\nrequire(availableFunds>=amount,\"Not enough funds\");\r\nnumOfshares[msg.sender]-=amount;\r\nif(numOfshares[msg.sender]==0){\r\nisInvestor[msg.sender]=false;\r\n}\r\navailableFunds-=amount;\r\npayable(msg.sender).transfer(amount);//transferring of ether\r\n}\r\n\r\n//investor's address share will get transfered \"to\" address\r\n\r\nfunction transferShare(uint amount,address to) public onlyInvestor(){\r\nrequire(availableFunds>=amount,\"Not enough funds\");\r\nrequire(numOfshares[msg.sender]>=amount,\"You don't have enough shares\");\r\nnumOfshares[msg.sender]-=amount;\r\nif(numOfshares[msg.sender]==0){\r\nisInvestor[msg.sender]=false;\r\n}\r\nnumOfshares[to]+=amount;\r\nisInvestor[to]=true;\r\ninvestorsList.push(to);\r\n}\r\n\r\n\r\n\r\nfunction createProposal(string calldata description,uint amount,address payable receipient) public onlyManager{\r\n\r\nproposals[nextProposalId]=Proposal(nextProposalId,description,\r\namount,receipient,0,block.timestamp+voteTime,false);\r\nnextProposalId++;\r\n}\r\n\r\n\r\n\r\nfunction voteProposal(uint proposalId) public onlyInvestor(){\r\nProposal storage proposal = proposals[proposalId];\r\nrequire(isVoted[msg.sender][proposalId]==false,\"You have already voted for this proposal\");\r\nrequire(proposal.end>=block.timestamp,\"Voting Time Ended\");\r\nrequire(proposal.isExecuted==false,\"It is already executed\");\r\nisVoted[msg.sender][proposalId]=true;\r\nproposal.votes+=numOfshares[msg.sender];//proposal.votes=proposal.votes+numOfshares[msg.sender]\r\n}\r\n\r\n\r\nfunction executeProposal(uint proposalId) public onlyManager(){\r\n  \r\nProposal storage proposal=proposals[proposalId];\r\nrequire(((proposal.votes*100)/totalShares)>=quorum,\"Majority does not support\");\r\nproposal.isExecuted=true;\r\navailableFunds-=proposal.amount;\r\n_transfer(proposal.amount,proposal.receipient);\r\n}\r\n\r\nfunction _transfer(uint amount,address payable receipient) private{\r\nreceipient.transfer(amount);\r\n}\r\n\r\n\r\nfunction ProposalList() public view returns(Proposal[] memory){\r\nProposal[] memory arr = new Proposal[](nextProposalId);//empty array of length=nextProposalId-1\r\nfor(uint i=0;i<nextProposalId;i++){\r\narr[i]=proposals[i];\r\n}\r\nreturn arr;\r\n}\r\nfunction InvestorList() public view returns(address[] memory){\r\n  return investorsList;\r\n}\r\n}\r\n\r\n",
  "sourcePath": "C:\\Users\\ANT-MAN\\Desktop\\DAO App\\DAOfinalstarter\\contracts\\dao.sol",
  "compiler": {
    "name": "solc",
    "version": "0.8.17+commit.8df45f5f.Emscripten.clang"
  },
  "schemaVersion": "3.4.16",
  "updatedAt": "2024-01-23T10:32:53.892Z",
  "networkType": "ethereum",
  "devdoc": {
    "kind": "dev",
    "methods": {},
    "version": 1
  },
  "userdoc": {
    "kind": "user",
    "methods": {},
    "version": 1
  }
}