{
  "contractName": "DAO",
  "abi": [
    {
      "inputs": [
        {
          "internalType": "uint256",
          "name": "_contributionTimeEnd",
          "type": "uint256"
        },
        {
          "internalType": "uint256",
          "name": "_voteTime",
          "type": "uint256"
        },
        {
          "internalType": "uint256",
          "name": "_quorum",
          "type": "uint256"
        }
      ],
      "stateMutability": "nonpayable",
      "type": "constructor"
    },
    {
      "inputs": [],
      "name": "availableFunds",
      "outputs": [
        {
          "internalType": "uint256",
          "name": "",
          "type": "uint256"
        }
      ],
      "stateMutability": "view",
      "type": "function",
      "constant": true
    },
    {
      "inputs": [],
      "name": "contributionTimeEnd",
      "outputs": [
        {
          "internalType": "uint256",
          "name": "",
          "type": "uint256"
        }
      ],
      "stateMutability": "view",
      "type": "function",
      "constant": true
    },
    {
      "inputs": [
        {
          "internalType": "uint256",
          "name": "",
          "type": "uint256"
        }
      ],
      "name": "investorsList",
      "outputs": [
        {
          "internalType": "address",
          "name": "",
          "type": "address"
        }
      ],
      "stateMutability": "view",
      "type": "function",
      "constant": true
    },
    {
      "inputs": [
        {
          "internalType": "address",
          "name": "",
          "type": "address"
        },
        {
          "internalType": "uint256",
          "name": "",
          "type": "uint256"
        }
      ],
      "name": "isVoted",
      "outputs": [
        {
          "internalType": "bool",
          "name": "",
          "type": "bool"
        }
      ],
      "stateMutability": "view",
      "type": "function",
      "constant": true
    },
    {
      "inputs": [],
      "name": "manager",
      "outputs": [
        {
          "internalType": "address",
          "name": "",
          "type": "address"
        }
      ],
      "stateMutability": "view",
      "type": "function",
      "constant": true
    },
    {
      "inputs": [],
      "name": "nextProposalId",
      "outputs": [
        {
          "internalType": "uint256",
          "name": "",
          "type": "uint256"
        }
      ],
      "stateMutability": "view",
      "type": "function",
      "constant": true
    },
    {
      "inputs": [
        {
          "internalType": "address",
          "name": "",
          "type": "address"
        }
      ],
      "name": "numOfshares",
      "outputs": [
        {
          "internalType": "uint256",
          "name": "",
          "type": "uint256"
        }
      ],
      "stateMutability": "view",
      "type": "function",
      "constant": true
    },
    {
      "inputs": [
        {
          "internalType": "uint256",
          "name": "",
          "type": "uint256"
        }
      ],
      "name": "proposals",
      "outputs": [
        {
          "internalType": "uint256",
          "name": "id",
          "type": "uint256"
        },
        {
          "internalType": "string",
          "name": "description",
          "type": "string"
        },
        {
          "internalType": "uint256",
          "name": "amount",
          "type": "uint256"
        },
        {
          "internalType": "address payable",
          "name": "receipient",
          "type": "address"
        },
        {
          "internalType": "uint256",
          "name": "votes",
          "type": "uint256"
        },
        {
          "internalType": "uint256",
          "name": "end",
          "type": "uint256"
        },
        {
          "internalType": "bool",
          "name": "isExecuted",
          "type": "bool"
        }
      ],
      "stateMutability": "view",
      "type": "function",
      "constant": true
    },
    {
      "inputs": [],
      "name": "quorum",
      "outputs": [
        {
          "internalType": "uint256",
          "name": "",
          "type": "uint256"
        }
      ],
      "stateMutability": "view",
      "type": "function",
      "constant": true
    },
    {
      "inputs": [],
      "name": "totalShares",
      "outputs": [
        {
          "internalType": "uint256",
          "name": "",
          "type": "uint256"
        }
      ],
      "stateMutability": "view",
      "type": "function",
      "constant": true
    },
    {
      "inputs": [],
      "name": "voteTime",
      "outputs": [
        {
          "internalType": "uint256",
          "name": "",
          "type": "uint256"
        }
      ],
      "stateMutability": "view",
      "type": "function",
      "constant": true
    },
    {
      "inputs": [],
      "name": "contribution",
      "outputs": [],
      "stateMutability": "payable",
      "type": "function",
      "payable": true
    },
    {
      "inputs": [
        {
          "internalType": "uint256",
          "name": "amount",
          "type": "uint256"
        }
      ],
      "name": "reedemShare",
      "outputs": [],
      "stateMutability": "nonpayable",
      "type": "function"
    },
    {
      "inputs": [
        {
          "internalType": "uint256",
          "name": "amount",
          "type": "uint256"
        },
        {
          "internalType": "address",
          "name": "to",
          "type": "address"
        }
      ],
      "name": "transferShare",
      "outputs": [],
      "stateMutability": "nonpayable",
      "type": "function"
    },
    {
      "inputs": [
        {
          "internalType": "string",
          "name": "description",
          "type": "string"
        },
        {
          "internalType": "uint256",
          "name": "amount",
          "type": "uint256"
        },
        {
          "internalType": "address payable",
          "name": "receipient",
          "type": "address"
        }
      ],
      "name": "createProposal",
      "outputs": [],
      "stateMutability": "nonpayable",
      "type": "function"
    },
    {
      "inputs": [
        {
          "internalType": "uint256",
          "name": "proposalId",
          "type": "uint256"
        }
      ],
      "name": "voteProposal",
      "outputs": [],
      "stateMutability": "nonpayable",
      "type": "function"
    },
    {
      "inputs": [
        {
          "internalType": "uint256",
          "name": "proposalId",
          "type": "uint256"
        }
      ],
      "name": "executeProposal",
      "outputs": [],
      "stateMutability": "nonpayable",
      "type": "function"
    },
    {
      "inputs": [],
      "name": "ProposalList",
      "outputs": [
        {
          "components": [
            {
              "internalType": "uint256",
              "name": "id",
              "type": "uint256"
            },
            {
              "internalType": "string",
              "name": "description",
              "type": "string"
            },
            {
              "internalType": "uint256",
              "name": "amount",
              "type": "uint256"
            },
            {
              "internalType": "address payable",
              "name": "receipient",
              "type": "address"
            },
            {
              "internalType": "uint256",
              "name": "votes",
              "type": "uint256"
            },
            {
              "internalType": "uint256",
              "name": "end",
              "type": "uint256"
            },
            {
              "internalType": "bool",
              "name": "isExecuted",
              "type": "bool"
            }
          ],
          "internalType": "struct DAO.Proposal[]",
          "name": "",
          "type": "tuple[]"
        }
      ],
      "stateMutability": "view",
      "type": "function",
      "constant": true
    },
    {
      "inputs": [],
      "name": "getInvestorsList",
      "outputs": [
        {
          "internalType": "address[]",
          "name": "",
          "type": "address[]"
        }
      ],
      "stateMutability": "view",
      "type": "function",
      "constant": true
    }
  ],
  "bytecode": "0x60806040523480156200001157600080fd5b5060405162002a8038038062002a80833981810160405281019062000037919062000136565b600081118015620000485750606481105b6200008a576040517f08c379a00000000000000000000000000000000000000000000000000000000081526004016200008190620001f3565b60405180910390fd5b824262000098919062000244565b6007819055508160098190555080600a8190555033600b60006101000a81548173ffffffffffffffffffffffffffffffffffffffff021916908373ffffffffffffffffffffffffffffffffffffffff1602179055505050506200027f565b600080fd5b6000819050919050565b6200011081620000fb565b81146200011c57600080fd5b50565b600081519050620001308162000105565b92915050565b600080600060608486031215620001525762000151620000f6565b5b600062000162868287016200011f565b935050602062000175868287016200011f565b925050604062000188868287016200011f565b9150509250925092565b600082825260208201905092915050565b7f4e6f742076616c69642076616c75657300000000000000000000000000000000600082015250565b6000620001db60108362000192565b9150620001e882620001a3565b602082019050919050565b600060208201905081810360008301526200020e81620001cc565b9050919050565b7f4e487b7100000000000000000000000000000000000000000000000000000000600052601160045260246000fd5b60006200025182620000fb565b91506200025e83620000fb565b925082820190508082111562000279576200027862000215565b5b92915050565b6127f1806200028f6000396000f3fe6080604052600436106101145760003560e01c806350520b1f116100a0578063afc8275b11610064578063afc8275b14610386578063b7d4c4a5146103b1578063bcf93dd6146103dc578063c1188cff14610407578063e65da4291461043057610114565b806350520b1f146102c25780636ac1e01f146102cc5780636dfc1099146102f5578063807896d5146103205780638ee36f051461034957610114565b80632ab09d14116100e75780632ab09d14146101d95780632ccc8727146102045780633a98ef391461024157806346fcff4c1461026c578063481c6a751461029757610114565b8063013cf08b14610119578063039383e61461015c5780630d61b519146101855780631703a018146101ae575b600080fd5b34801561012557600080fd5b50610140600480360381019061013b91906117db565b61046d565b6040516101539796959493929190611903565b60405180910390f35b34801561016857600080fd5b50610183600480360381019061017e91906119b7565b610564565b005b34801561019157600080fd5b506101ac60048036038101906101a791906117db565b6108c6565b005b3480156101ba57600080fd5b506101c3610a3f565b6040516101d091906119f7565b60405180910390f35b3480156101e557600080fd5b506101ee610a45565b6040516101fb91906119f7565b60405180910390f35b34801561021057600080fd5b5061022b600480360381019061022691906117db565b610a4b565b6040516102389190611a21565b60405180910390f35b34801561024d57600080fd5b50610256610a8a565b60405161026391906119f7565b60405180910390f35b34801561027857600080fd5b50610281610a90565b60405161028e91906119f7565b60405180910390f35b3480156102a357600080fd5b506102ac610a96565b6040516102b99190611a21565b60405180910390f35b6102ca610abc565b005b3480156102d857600080fd5b506102f360048036038101906102ee9190611acd565b610cc0565b005b34801561030157600080fd5b5061030a610ecb565b6040516103179190611d16565b60405180910390f35b34801561032c57600080fd5b50610347600480360381019061034291906117db565b6110b6565b005b34801561035557600080fd5b50610370600480360381019061036b9190611d38565b611369565b60405161037d9190611d78565b60405180910390f35b34801561039257600080fd5b5061039b611398565b6040516103a891906119f7565b60405180910390f35b3480156103bd57600080fd5b506103c661139e565b6040516103d39190611e51565b60405180910390f35b3480156103e857600080fd5b506103f161142c565b6040516103fe91906119f7565b60405180910390f35b34801561041357600080fd5b5061042e600480360381019061042991906117db565b611432565b005b34801561043c57600080fd5b5061045760048036038101906104529190611e73565b6116e3565b60405161046491906119f7565b60405180910390f35b600460205280600052604060002060009150905080600001549080600101805461049690611ecf565b80601f01602080910402602001604051908101604052809291908181526020018280546104c290611ecf565b801561050f5780601f106104e45761010080835404028352916020019161050f565b820191906000526020600020905b8154815290600101906020018083116104f257829003601f168201915b5050505050908060020154908060030160009054906101000a900473ffffffffffffffffffffffffffffffffffffffff16908060040154908060050154908060060160009054906101000a900460ff16905087565b600115156000803373ffffffffffffffffffffffffffffffffffffffff1673ffffffffffffffffffffffffffffffffffffffff16815260200190815260200160002060009054906101000a900460ff161515146105f6576040517f08c379a00000000000000000000000000000000000000000000000000000000081526004016105ed90611f4c565b60405180910390fd5b81600654101561063b576040517f08c379a000000000000000000000000000000000000000000000000000000000815260040161063290611fb8565b60405180910390fd5b81600160003373ffffffffffffffffffffffffffffffffffffffff1673ffffffffffffffffffffffffffffffffffffffff1681526020019081526020016000205410156106bd576040517f08c379a00000000000000000000000000000000000000000000000000000000081526004016106b490612024565b60405180910390fd5b81600160003373ffffffffffffffffffffffffffffffffffffffff1673ffffffffffffffffffffffffffffffffffffffff168152602001908152602001600020600082825461070c9190612073565b925050819055506000600160003373ffffffffffffffffffffffffffffffffffffffff1673ffffffffffffffffffffffffffffffffffffffff16815260200190815260200160002054036107b25760008060003373ffffffffffffffffffffffffffffffffffffffff1673ffffffffffffffffffffffffffffffffffffffff16815260200190815260200160002060006101000a81548160ff0219169083151502179055505b81600160008373ffffffffffffffffffffffffffffffffffffffff1673ffffffffffffffffffffffffffffffffffffffff168152602001908152602001600020600082825461080191906120a7565b9250508190555060016000808373ffffffffffffffffffffffffffffffffffffffff1673ffffffffffffffffffffffffffffffffffffffff16815260200190815260200160002060006101000a81548160ff0219169083151502179055506003819080600181540180825580915050600190039060005260206000200160009091909190916101000a81548173ffffffffffffffffffffffffffffffffffffffff021916908373ffffffffffffffffffffffffffffffffffffffff1602179055505050565b3373ffffffffffffffffffffffffffffffffffffffff16600b60009054906101000a900473ffffffffffffffffffffffffffffffffffffffff1673ffffffffffffffffffffffffffffffffffffffff1614610956576040517f08c379a000000000000000000000000000000000000000000000000000000000815260040161094d90612127565b60405180910390fd5b6000600460008381526020019081526020016000209050600a54600554606483600401546109849190612147565b61098e91906121b8565b10156109cf576040517f08c379a00000000000000000000000000000000000000000000000000000000081526004016109c690612235565b60405180910390fd5b60018160060160006101000a81548160ff021916908315150217905550806002015460066000828254610a029190612073565b92505081905550610a3b81600201548260030160009054906101000a900473ffffffffffffffffffffffffffffffffffffffff166116fb565b5050565b600a5481565b60085481565b60038181548110610a5b57600080fd5b906000526020600020016000915054906101000a900473ffffffffffffffffffffffffffffffffffffffff1681565b60055481565b60065481565b600b60009054906101000a900473ffffffffffffffffffffffffffffffffffffffff1681565b426007541015610b01576040517f08c379a0000000000000000000000000000000000000000000000000000000008152600401610af8906122a1565b60405180910390fd5b60003411610b44576040517f08c379a0000000000000000000000000000000000000000000000000000000008152600401610b3b9061230d565b60405180910390fd5b60016000803373ffffffffffffffffffffffffffffffffffffffff1673ffffffffffffffffffffffffffffffffffffffff16815260200190815260200160002060006101000a81548160ff02191690831515021790555034600160003373ffffffffffffffffffffffffffffffffffffffff1673ffffffffffffffffffffffffffffffffffffffff16815260200190815260200160002054610be691906120a7565b600160003373ffffffffffffffffffffffffffffffffffffffff1673ffffffffffffffffffffffffffffffffffffffff168152602001908152602001600020819055503460056000828254610c3b91906120a7565b925050819055503460066000828254610c5491906120a7565b925050819055506003339080600181540180825580915050600190039060005260206000200160009091909190916101000a81548173ffffffffffffffffffffffffffffffffffffffff021916908373ffffffffffffffffffffffffffffffffffffffff160217905550565b3373ffffffffffffffffffffffffffffffffffffffff16600b60009054906101000a900473ffffffffffffffffffffffffffffffffffffffff1673ffffffffffffffffffffffffffffffffffffffff1614610d50576040517f08c379a0000000000000000000000000000000000000000000000000000000008152600401610d4790612127565b60405180910390fd5b6040518060e00160405280600854815260200185858080601f016020809104026020016040519081016040528093929190818152602001838380828437600081840152601f19601f8201169050808301925050505050505081526020018381526020018273ffffffffffffffffffffffffffffffffffffffff1681526020016000815260200160095442610de491906120a7565b815260200160001515815250600460006008548152602001908152602001600020600082015181600001556020820151816001019081610e249190612508565b506040820151816002015560608201518160030160006101000a81548173ffffffffffffffffffffffffffffffffffffffff021916908373ffffffffffffffffffffffffffffffffffffffff1602179055506080820151816004015560a0820151816005015560c08201518160060160006101000a81548160ff02191690831515021790555090505060086000815480929190610ec0906125da565b919050555050505050565b6060600060085467ffffffffffffffff811115610eeb57610eea61232d565b5b604051908082528060200260200182016040528015610f2457816020015b610f11611746565b815260200190600190039081610f095790505b50905060005b6008548110156110ae57600460008281526020019081526020016000206040518060e001604052908160008201548152602001600182018054610f6c90611ecf565b80601f0160208091040260200160405190810160405280929190818152602001828054610f9890611ecf565b8015610fe55780601f10610fba57610100808354040283529160200191610fe5565b820191906000526020600020905b815481529060010190602001808311610fc857829003601f168201915b50505050508152602001600282015481526020016003820160009054906101000a900473ffffffffffffffffffffffffffffffffffffffff1673ffffffffffffffffffffffffffffffffffffffff1673ffffffffffffffffffffffffffffffffffffffff16815260200160048201548152602001600582015481526020016006820160009054906101000a900460ff1615151515815250508282815181106110905761108f612622565b5b602002602001018190525080806110a6906125da565b915050610f2a565b508091505090565b600115156000803373ffffffffffffffffffffffffffffffffffffffff1673ffffffffffffffffffffffffffffffffffffffff16815260200190815260200160002060009054906101000a900460ff16151514611148576040517f08c379a000000000000000000000000000000000000000000000000000000000815260040161113f90611f4c565b60405180910390fd5b600060046000838152602001908152602001600020905060001515600260003373ffffffffffffffffffffffffffffffffffffffff1673ffffffffffffffffffffffffffffffffffffffff168152602001908152602001600020600084815260200190815260200160002060009054906101000a900460ff16151514611203576040517f08c379a00000000000000000000000000000000000000000000000000000000081526004016111fa906126c3565b60405180910390fd5b428160050154101561124a576040517f08c379a00000000000000000000000000000000000000000000000000000000081526004016112419061272f565b60405180910390fd5b600015158160060160009054906101000a900460ff161515146112a2576040517f08c379a00000000000000000000000000000000000000000000000000000000081526004016112999061279b565b60405180910390fd5b6001600260003373ffffffffffffffffffffffffffffffffffffffff1673ffffffffffffffffffffffffffffffffffffffff168152602001908152602001600020600084815260200190815260200160002060006101000a81548160ff021916908315150217905550600160003373ffffffffffffffffffffffffffffffffffffffff1673ffffffffffffffffffffffffffffffffffffffff1681526020019081526020016000205481600401600082825461135e91906120a7565b925050819055505050565b60026020528160005260406000206020528060005260406000206000915091509054906101000a900460ff1681565b60075481565b6060600380548060200260200160405190810160405280929190818152602001828054801561142257602002820191906000526020600020905b8160009054906101000a900473ffffffffffffffffffffffffffffffffffffffff1673ffffffffffffffffffffffffffffffffffffffff16815260200190600101908083116113d8575b5050505050905090565b60095481565b600115156000803373ffffffffffffffffffffffffffffffffffffffff1673ffffffffffffffffffffffffffffffffffffffff16815260200190815260200160002060009054906101000a900460ff161515146114c4576040517f08c379a00000000000000000000000000000000000000000000000000000000081526004016114bb90611f4c565b60405180910390fd5b80600160003373ffffffffffffffffffffffffffffffffffffffff1673ffffffffffffffffffffffffffffffffffffffff168152602001908152602001600020541015611546576040517f08c379a000000000000000000000000000000000000000000000000000000000815260040161153d90612024565b60405180910390fd5b80600654101561158b576040517f08c379a000000000000000000000000000000000000000000000000000000000815260040161158290611fb8565b60405180910390fd5b80600160003373ffffffffffffffffffffffffffffffffffffffff1673ffffffffffffffffffffffffffffffffffffffff16815260200190815260200160002060008282546115da9190612073565b925050819055506000600160003373ffffffffffffffffffffffffffffffffffffffff1673ffffffffffffffffffffffffffffffffffffffff16815260200190815260200160002054036116805760008060003373ffffffffffffffffffffffffffffffffffffffff1673ffffffffffffffffffffffffffffffffffffffff16815260200190815260200160002060006101000a81548160ff0219169083151502179055505b80600660008282546116929190612073565b925050819055503373ffffffffffffffffffffffffffffffffffffffff166108fc829081150290604051600060405180830381858888f193505050501580156116df573d6000803e3d6000fd5b5050565b60016020528060005260406000206000915090505481565b8073ffffffffffffffffffffffffffffffffffffffff166108fc839081150290604051600060405180830381858888f19350505050158015611741573d6000803e3d6000fd5b505050565b6040518060e00160405280600081526020016060815260200160008152602001600073ffffffffffffffffffffffffffffffffffffffff16815260200160008152602001600081526020016000151581525090565b600080fd5b600080fd5b6000819050919050565b6117b8816117a5565b81146117c357600080fd5b50565b6000813590506117d5816117af565b92915050565b6000602082840312156117f1576117f061179b565b5b60006117ff848285016117c6565b91505092915050565b611811816117a5565b82525050565b600081519050919050565b600082825260208201905092915050565b60005b83811015611851578082015181840152602081019050611836565b60008484015250505050565b6000601f19601f8301169050919050565b600061187982611817565b6118838185611822565b9350611893818560208601611833565b61189c8161185d565b840191505092915050565b600073ffffffffffffffffffffffffffffffffffffffff82169050919050565b60006118d2826118a7565b9050919050565b6118e2816118c7565b82525050565b60008115159050919050565b6118fd816118e8565b82525050565b600060e082019050611918600083018a611808565b818103602083015261192a818961186e565b90506119396040830188611808565b61194660608301876118d9565b6119536080830186611808565b61196060a0830185611808565b61196d60c08301846118f4565b98975050505050505050565b6000611984826118a7565b9050919050565b61199481611979565b811461199f57600080fd5b50565b6000813590506119b18161198b565b92915050565b600080604083850312156119ce576119cd61179b565b5b60006119dc858286016117c6565b92505060206119ed858286016119a2565b9150509250929050565b6000602082019050611a0c6000830184611808565b92915050565b611a1b81611979565b82525050565b6000602082019050611a366000830184611a12565b92915050565b600080fd5b600080fd5b600080fd5b60008083601f840112611a6157611a60611a3c565b5b8235905067ffffffffffffffff811115611a7e57611a7d611a41565b5b602083019150836001820283011115611a9a57611a99611a46565b5b9250929050565b611aaa816118c7565b8114611ab557600080fd5b50565b600081359050611ac781611aa1565b92915050565b60008060008060608587031215611ae757611ae661179b565b5b600085013567ffffffffffffffff811115611b0557611b046117a0565b5b611b1187828801611a4b565b94509450506020611b24878288016117c6565b9250506040611b3587828801611ab8565b91505092959194509250565b600081519050919050565b600082825260208201905092915050565b6000819050602082019050919050565b611b76816117a5565b82525050565b600082825260208201905092915050565b6000611b9882611817565b611ba28185611b7c565b9350611bb2818560208601611833565b611bbb8161185d565b840191505092915050565b611bcf816118c7565b82525050565b611bde816118e8565b82525050565b600060e083016000830151611bfc6000860182611b6d565b5060208301518482036020860152611c148282611b8d565b9150506040830151611c296040860182611b6d565b506060830151611c3c6060860182611bc6565b506080830151611c4f6080860182611b6d565b5060a0830151611c6260a0860182611b6d565b5060c0830151611c7560c0860182611bd5565b508091505092915050565b6000611c8c8383611be4565b905092915050565b6000602082019050919050565b6000611cac82611b41565b611cb68185611b4c565b935083602082028501611cc885611b5d565b8060005b85811015611d045784840389528151611ce58582611c80565b9450611cf083611c94565b925060208a01995050600181019050611ccc565b50829750879550505050505092915050565b60006020820190508181036000830152611d308184611ca1565b905092915050565b60008060408385031215611d4f57611d4e61179b565b5b6000611d5d858286016119a2565b9250506020611d6e858286016117c6565b9150509250929050565b6000602082019050611d8d60008301846118f4565b92915050565b600081519050919050565b600082825260208201905092915050565b6000819050602082019050919050565b611dc881611979565b82525050565b6000611dda8383611dbf565b60208301905092915050565b6000602082019050919050565b6000611dfe82611d93565b611e088185611d9e565b9350611e1383611daf565b8060005b83811015611e44578151611e2b8882611dce565b9750611e3683611de6565b925050600181019050611e17565b5085935050505092915050565b60006020820190508181036000830152611e6b8184611df3565b905092915050565b600060208284031215611e8957611e8861179b565b5b6000611e97848285016119a2565b91505092915050565b7f4e487b7100000000000000000000000000000000000000000000000000000000600052602260045260246000fd5b60006002820490506001821680611ee757607f821691505b602082108103611efa57611ef9611ea0565b5b50919050565b7f596f7520617265206e6f7420616e20696e766573746f72000000000000000000600082015250565b6000611f36601783611822565b9150611f4182611f00565b602082019050919050565b60006020820190508181036000830152611f6581611f29565b9050919050565b7f4e6f7420656e6f7567682066756e647300000000000000000000000000000000600082015250565b6000611fa2601083611822565b9150611fad82611f6c565b602082019050919050565b60006020820190508181036000830152611fd181611f95565b9050919050565b7f596f7520646f6e2774206861766520656e6f7567682073686172657300000000600082015250565b600061200e601c83611822565b915061201982611fd8565b602082019050919050565b6000602082019050818103600083015261203d81612001565b9050919050565b7f4e487b7100000000000000000000000000000000000000000000000000000000600052601160045260246000fd5b600061207e826117a5565b9150612089836117a5565b92508282039050818111156120a1576120a0612044565b5b92915050565b60006120b2826117a5565b91506120bd836117a5565b92508282019050808211156120d5576120d4612044565b5b92915050565b7f596f7520617265206e6f742061206d616e616765720000000000000000000000600082015250565b6000612111601583611822565b915061211c826120db565b602082019050919050565b6000602082019050818103600083015261214081612104565b9050919050565b6000612152826117a5565b915061215d836117a5565b925082820261216b816117a5565b9150828204841483151761218257612181612044565b5b5092915050565b7f4e487b7100000000000000000000000000000000000000000000000000000000600052601260045260246000fd5b60006121c3826117a5565b91506121ce836117a5565b9250826121de576121dd612189565b5b828204905092915050565b7f4d616a6f7269747920646f6573206e6f7420737570706f727400000000000000600082015250565b600061221f601983611822565b915061222a826121e9565b602082019050919050565b6000602082019050818103600083015261224e81612212565b9050919050565b7f436f6e747269627574696f6e2054696d6520456e646564000000000000000000600082015250565b600061228b601783611822565b915061229682612255565b602082019050919050565b600060208201905081810360008301526122ba8161227e565b9050919050565b7f53656e64206d6f7265207468616e203020657468657200000000000000000000600082015250565b60006122f7601683611822565b9150612302826122c1565b602082019050919050565b60006020820190508181036000830152612326816122ea565b9050919050565b7f4e487b7100000000000000000000000000000000000000000000000000000000600052604160045260246000fd5b60008190508160005260206000209050919050565b60006020601f8301049050919050565b600082821b905092915050565b6000600883026123be7fffffffffffffffffffffffffffffffffffffffffffffffffffffffffffffffff82612381565b6123c88683612381565b95508019841693508086168417925050509392505050565b6000819050919050565b60006124056124006123fb846117a5565b6123e0565b6117a5565b9050919050565b6000819050919050565b61241f836123ea565b61243361242b8261240c565b84845461238e565b825550505050565b600090565b61244861243b565b612453818484612416565b505050565b5b818110156124775761246c600082612440565b600181019050612459565b5050565b601f8211156124bc5761248d8161235c565b61249684612371565b810160208510156124a5578190505b6124b96124b185612371565b830182612458565b50505b505050565b600082821c905092915050565b60006124df600019846008026124c1565b1980831691505092915050565b60006124f883836124ce565b9150826002028217905092915050565b61251182611817565b67ffffffffffffffff81111561252a5761252961232d565b5b6125348254611ecf565b61253f82828561247b565b600060209050601f8311600181146125725760008415612560578287015190505b61256a85826124ec565b8655506125d2565b601f1984166125808661235c565b60005b828110156125a857848901518255600182019150602085019450602081019050612583565b868310156125c557848901516125c1601f8916826124ce565b8355505b6001600288020188555050505b505050505050565b60006125e5826117a5565b91507fffffffffffffffffffffffffffffffffffffffffffffffffffffffffffffffff820361261757612616612044565b5b600182019050919050565b7f4e487b7100000000000000000000000000000000000000000000000000000000600052603260045260246000fd5b7f596f75206861766520616c726561647920766f74656420666f7220746869732060008201527f70726f706f73616c000000000000000000000000000000000000000000000000602082015250565b60006126ad602883611822565b91506126b882612651565b604082019050919050565b600060208201905081810360008301526126dc816126a0565b9050919050565b7f566f74696e672054696d6520456e646564000000000000000000000000000000600082015250565b6000612719601183611822565b9150612724826126e3565b602082019050919050565b600060208201905081810360008301526127488161270c565b9050919050565b7f497420697320616c726561647920657865637574656400000000000000000000600082015250565b6000612785601683611822565b91506127908261274f565b602082019050919050565b600060208201905081810360008301526127b481612778565b905091905056fea26469706673582212208c693c4fe79f7347dc6e578cee8a7a664ff2273d1a704c676bc643afcaa00fc664736f6c63430008110033",
  "immutableReferences": {},
  "source": "// SPDX-License-Identifier: GPL-3.0\r\n\r\npragma solidity >=0.7.0 <0.9.0;\r\n\r\ncontract DAO {\r\nstruct Proposal{\r\nuint id;\r\nstring description;\r\nuint amount;\r\naddress payable receipient;\r\nuint votes;\r\nuint end;\r\nbool isExecuted;\r\n}\r\n\r\nmapping(address=>bool) private isInvestor;\r\nmapping(address=>uint) public numOfshares;\r\nmapping(address=>mapping(uint=>bool)) public isVoted;\r\naddress[] public investorsList;\r\nmapping(uint=>Proposal) public proposals;\r\nuint public totalShares;\r\nuint public availableFunds;\r\nuint public contributionTimeEnd;\r\nuint public nextProposalId;\r\nuint public voteTime;\r\nuint public quorum;\r\naddress public manager;\r\n\r\n//value passed using truffle migration file\r\nconstructor(uint _contributionTimeEnd,uint _voteTime,uint _quorum){\r\nrequire(_quorum>0 && _quorum<100,\"Not valid values\");\r\ncontributionTimeEnd=block.timestamp+_contributionTimeEnd; //16342343342 + 2*3600\r\nvoteTime=_voteTime;\r\nquorum=_quorum;\r\nmanager=msg.sender;\r\n}\r\n\r\nmodifier onlyInvestor(){\r\nrequire(isInvestor[msg.sender]==true,\"You are not an investor\");\r\n_;\r\n}\r\nmodifier onlyManager(){\r\nrequire(manager==msg.sender,\"You are not a manager\");\r\n_;\r\n}\r\n\r\n\r\n\r\nfunction contribution() public payable{\r\nrequire(contributionTimeEnd>=block.timestamp,\"Contribution Time Ended\");//5 PM , //16342343342 + 2*3600 > 16342340000\r\nrequire(msg.value>0,\"Send more than 0 ether\");\r\nisInvestor[msg.sender]=true;\r\nnumOfshares[msg.sender]=numOfshares[msg.sender]+msg.value;\r\ntotalShares+=msg.value; //totaltShares=totalShares+msg.value\r\navailableFunds+=msg.value;\r\ninvestorsList.push(msg.sender);\r\n// bool isinves=false;\r\n// for (uint i = 0; i < investorsList.length; i++) {\r\n//     if (investorsList[i] == msg.sender) {\r\n//         isinves=true;\r\n//         break;\r\n//     }\r\n// }\r\n// if (isinves==false) {\r\n//     investorsList.push(msg.sender);\r\n// }\r\n}\r\n\r\nfunction reedemShare(uint amount) public onlyInvestor(){\r\nrequire(numOfshares[msg.sender]>=amount,\"You don't have enough shares\");\r\nrequire(availableFunds>=amount,\"Not enough funds\");\r\nnumOfshares[msg.sender]-=amount;\r\nif(numOfshares[msg.sender]==0){\r\nisInvestor[msg.sender]=false;\r\n}\r\navailableFunds-=amount;\r\npayable(msg.sender).transfer(amount);//transferring of ether\r\n}\r\n\r\n//investor's address share will get transfered \"to\" address\r\n\r\nfunction transferShare(uint amount,address to) public onlyInvestor(){\r\nrequire(availableFunds>=amount,\"Not enough funds\");\r\nrequire(numOfshares[msg.sender]>=amount,\"You don't have enough shares\");\r\nnumOfshares[msg.sender]-=amount;\r\nif(numOfshares[msg.sender]==0){\r\nisInvestor[msg.sender]=false;\r\n}\r\nnumOfshares[to]+=amount;\r\nisInvestor[to]=true;\r\ninvestorsList.push(to);\r\n}\r\n\r\n\r\n\r\nfunction createProposal(string calldata description,uint amount,address payable receipient) public onlyManager{\r\n\r\nproposals[nextProposalId]=Proposal(nextProposalId,description,\r\namount,receipient,0,block.timestamp+voteTime,false);\r\nnextProposalId++;\r\n}\r\n\r\n\r\n\r\nfunction voteProposal(uint proposalId) public onlyInvestor(){\r\nProposal storage proposal = proposals[proposalId];\r\nrequire(isVoted[msg.sender][proposalId]==false,\"You have already voted for this proposal\");\r\nrequire(proposal.end>=block.timestamp,\"Voting Time Ended\");\r\nrequire(proposal.isExecuted==false,\"It is already executed\");\r\nisVoted[msg.sender][proposalId]=true;\r\nproposal.votes+=numOfshares[msg.sender];//proposal.votes=proposal.votes+numOfshares[msg.sender]\r\n}\r\n\r\n\r\nfunction executeProposal(uint proposalId) public onlyManager(){\r\n  \r\nProposal storage proposal=proposals[proposalId];\r\nrequire(((proposal.votes*100)/totalShares)>=quorum,\"Majority does not support\");\r\nproposal.isExecuted=true;\r\navailableFunds-=proposal.amount;\r\n_transfer(proposal.amount,proposal.receipient);\r\n}\r\n\r\nfunction _transfer(uint amount,address payable receipient) private{\r\nreceipient.transfer(amount);\r\n}\r\n\r\n\r\nfunction ProposalList() public view returns(Proposal[] memory){\r\nProposal[] memory arr = new Proposal[](nextProposalId);//empty array of length=nextProposalId-1\r\nfor(uint i=0;i<nextProposalId;i++){\r\narr[i]=proposals[i];\r\n}\r\nreturn arr;\r\n}\r\nfunction getInvestorsList() public view returns (address[] memory) {\r\n    return investorsList;\r\n}\r\n\r\n}\r\n\r\n",
  "sourcePath": "C:\\Users\\ANT-MAN\\Desktop\\DApps\\Anant2090-Decentralized-Application--DAO-Decentralized-Autonomous-Organization\\DAO\\contracts\\dao.sol",
  "compiler": {
    "name": "solc",
    "version": "0.8.17+commit.8df45f5f.Emscripten.clang"
  },
  "schemaVersion": "3.4.16",
  "updatedAt": "2024-02-12T10:21:36.886Z",
  "networkType": "ethereum",
  "devdoc": {
    "kind": "dev",
    "methods": {},
    "version": 1
  },
  "userdoc": {
    "kind": "user",
    "methods": {},
    "version": 1
  }
}